{
  "contractName": "StorageNum",
  "abi": [
    {
      "inputs": [
        {
          "internalType": "address",
          "name": "",
          "type": "address"
        }
      ],
      "name": "num",
      "outputs": [
        {
          "internalType": "uint256",
          "name": "",
          "type": "uint256"
        }
      ],
      "stateMutability": "view",
      "type": "function"
    },
    {
      "inputs": [
        {
          "internalType": "uint256",
          "name": "input",
          "type": "uint256"
        }
      ],
      "name": "set",
      "outputs": [],
      "stateMutability": "nonpayable",
      "type": "function"
    },
    {
      "inputs": [
        {
          "internalType": "address",
          "name": "addr",
          "type": "address"
        }
      ],
      "name": "get",
      "outputs": [
        {
          "internalType": "uint256",
          "name": "",
          "type": "uint256"
        }
      ],
      "stateMutability": "view",
      "type": "function"
    }
  ],
  "bytecode": "0x608060405234801561001057600080fd5b506102bb806100206000396000f3fe608060405234801561001057600080fd5b50600436106100415760003560e01c806360fe47b114610046578063bd3e8d5e14610062578063c2bc2efc14610092575b600080fd5b610060600480360381019061005b91906101a3565b6100c2565b005b61007c6004803603810190610077919061022e565b610108565b604051610089919061026a565b60405180910390f35b6100ac60048036038101906100a7919061022e565b610120565b6040516100b9919061026a565b60405180910390f35b806000803373ffffffffffffffffffffffffffffffffffffffff1673ffffffffffffffffffffffffffffffffffffffff1681526020019081526020016000208190555050565b60006020528060005260406000206000915090505481565b60008060008373ffffffffffffffffffffffffffffffffffffffff1673ffffffffffffffffffffffffffffffffffffffff168152602001908152602001600020549050919050565b600080fd5b6000819050919050565b6101808161016d565b811461018b57600080fd5b50565b60008135905061019d81610177565b92915050565b6000602082840312156101b9576101b8610168565b5b60006101c78482850161018e565b91505092915050565b600073ffffffffffffffffffffffffffffffffffffffff82169050919050565b60006101fb826101d0565b9050919050565b61020b816101f0565b811461021657600080fd5b50565b60008135905061022881610202565b92915050565b60006020828403121561024457610243610168565b5b600061025284828501610219565b91505092915050565b6102648161016d565b82525050565b600060208201905061027f600083018461025b565b9291505056fea26469706673582212206cc411917a92a8a190dcb97502a671169c496d226ef023872ba78d03c8095fe764736f6c63430008110033",
  "immutableReferences": {},
  "source": "// SPDX-License-Identifier: MIT\npragma solidity ^0.8.0;\n\ncontract StorageNum {\n    \n    mapping(address => uint256) public num;\n\n    function set(uint256 input) public {\n        num[msg.sender] = input;\n    }\n\n    function get(address addr) public view returns (uint256) {\n        return num[addr];\n    }\n}",
  "sourcePath": "/Users/peter/Desktop/truffle/contracts/storageNum.sol",
  "compiler": {
    "name": "solc",
    "version": "0.8.17+commit.8df45f5f.Emscripten.clang"
  },
  "schemaVersion": "3.4.10",
  "updatedAt": "2022-10-31T17:53:48.857Z",
  "devdoc": {
    "kind": "dev",
    "methods": {},
    "version": 1
  },
  "userdoc": {
    "kind": "user",
    "methods": {},
    "version": 1
  }
}